:020000040800F2
:10000000300A00204501000807090008FF08000821
:1000100003090008FD060008C119000800000000DF
:100020000000000000000000000000008D0A000831
:1000300001070008000000005B0100085D010008E6
:100040005F0100085F0100085F0100085F01000810
:100050005F0100085F0100085F0100085F01000800
:100060005F0100085F0100085F0100085F010008F0
:100070005F0100085F0100085F0100085F010008E0
:100080005F0100085F0100085F0100085F010008D0
:100090005F0100085F0100085F0100085F010008C0
:1000A0005F0100085F0100085F0100085F010008B0
:1000B0005F0100085F0100085F0100085F010008A0
:1000C0005F0100085F0100085F0100085F01000890
:1000D0005F010008210E0008F50E0008C90F000896
:1000E0005F0100085F0100085F0100085F01000870
:1000F0005F0100085F0100085F0100085F01000860
:100100005F0100085F0100085F0100085F0100084F
:10011000750C00084D0D00085F0100085F01000824
:100120005F0100085F0100085F0100085F0100082F
:10013000DFF80CD000F042FA00480047C92300085D
:10014000300A00200648804706480047FEE7FEE7E1
:10015000FEE7FEE7FEE7FEE7FEE7FEE7FEE7FEE777
:10016000790B00083101000840EA01039B0703D026
:1001700009E008C9121F08C0042AFAD203E011F8E6
:10018000013B00F8013B521EF9D27047D2B201E0A8
:1001900000F8012B491EFBD270470022F6E710B58C
:1001A00013460A4604461946FFF7F0FF204610BDE5
:1001B000421C10F8011B0029FBD1801A704730B592
:1001C0000B46014600202022012409E021FA02F515
:1001D0009D4205D303FA02F5491B04FA02F52844AF
:1001E000151EA2F10102F1DC30BD2DE9F05F0546DC
:1001F000002092469B4688460646814640241BE0E6
:10020000284641464746224600F0F9F953465A46E9
:10021000C01A914110D311461846224600F0E0F969
:100220002D1A67EB01084F4622460120002100F0FD
:10023000D7F917EB00094E41201EA4F10104DFDCC1
:10024000484631462A464346BDE8F09F2DE9FE4F19
:10025000804681EA0300C00F0C46009021F0004167
:1002600023F00045B8EB0200A94105D240462146E3
:1002700090461C460B46024623F00040104347D0F0
:10028000270DC7F30A00C3F30A510290401A0190E8
:1002900040286BDAC3F3130040F4801B00989246A9
:1002A00020B10023D2EB030A63EB0B0B01985946F4
:1002B000C0F14002504600F093F906460D46504604
:1002C0005946019A00F0ABF910EB08006141002497
:1002D00087EA115284EAE7731A4340D0009A62B366
:1002E000019A012A4FEA075215DC001B61EB02015B
:1002F0004FF0004202EA0752CDE90042001C41F5EE
:10030000801132462B4600F0ABF903B0BDE8F08F08
:1003100040462146F9E7001B61EB0201001C41F554
:10032000801300185B412018A2F5001747EB03016A
:1003300040EAD570B6196D4111E06D084FEA3606F6
:1003400045EAC0754FEA0752001B61EB0201001C31
:1003500041F5801149084FEA3000001951413246F9
:100360002B4603B0BDE8F04F00F06BB900980122B6
:1003700040000023D0EB020263EBE07300982146BB
:100380004FEAE074B8EB000061EB0401E9E783F0A9
:1003900000435BE781F0004158E72DE9FE4F81EA19
:1003A000030404F0004421F0004100944FF0000BDE
:1003B00023F0004350EA01045ED052EA03045BD00C
:1003C000C3F30A54C1F30A552C44A4F2F334019444
:1003D000A0FB0254C1F3130141F48011C3F31303D2
:1003E00043F4801301FB024400FB034E840A970A86
:1003F00044EA815447EA8357A4FB076802958D0AB3
:1004000005FB07854FEA932C04FB0C542705029D3E
:100410004FEA065847EA1637B5EB08056EEB070CAE
:10042000870E920E47EA811742EA8312A7FB020168
:10043000B6EB0B0164EB00042B0D43EA0C335E18A2
:1004400044EB1C50DA465146E7FB0201C5F31304A6
:100450004FEA0B3343EA14534FEA0432019C43EA58
:100460000603A4F10C040294009CCDE900B400F052
:10047000F7F803B0BDE8F08F00200146F9E72DE959
:10048000F04D81EA030404F0004B21F000451446CE
:100490004FF0000A23F0004150EA050220D054EA50
:1004A00001021DD0C5F30A570246C5F31303C1F379
:1004B0001300C1F30A5640F4801543F48013A7EBF0
:1004C0000608101BD64608F2FD3873EB050002D370
:1004D00008F1010801E092185B41B8F1000F03DA5E
:1004E00000200146BDE8F08D00204FF48011064643
:1004F00084460EE0171B73EB050705D3121B63EB55
:10050000050306434CEA010C49084FEA30009218F3
:100510005B4150EA0107EDD152EA030012D082EAB2
:10052000040083EA0501084305D0101BAB4106D245
:100530000122002306E000224FF0004302E06FF0AA
:10054000010253101AEB06004CEB085110EB0A00A5
:1005500041EB0B01BDE8F04D00F073B8C1F30A5256
:10056000C1F3130140F2FF3341F480119A4202DAE1
:1005700000200146704740F233439A42A2F23342D0
:1005800002DC524200F03BB800F02AB830B5041E3D
:1005900071F1000404DB4FF00044404264EB0101C0
:1005A000141E73F1000405DB1C464FF00043524259
:1005B00063EB0403994208BF904230BD064C074DDF
:1005C00006E0E06840F0010394E807009847103423
:1005D000AC42F6D3FFF7B0FDD0230008F0230008AB
:1005E000202A04DB203A00FA02F1002070479140F3
:1005F000C2F1200320FA03F3194390407047202AE8
:1006000004DB203A21FA02F00021704721FA02F3BC
:10061000D040C2F120029140084319467047202A79
:1006200006DBCB17203A41FA02F043EAE07306E01A
:1006300041FA02F3D040C2F120029140084319462A
:10064000704710B5141E73F1000408DA401C41F124
:10065000000192185B411A4301D120F0010010BD46
:100660002DE9F04D92469B4611B1B1FA81F202E0BC
:10067000B0FA80F220329046FFF7B2FF04460F46F0
:1006800040EA0A0041EA0B0153465A46084313D098
:10069000114653EA010019D0C8F140025046FFF755
:1006A000AEFF05460E46504659464246FFF798FFB4
:1006B000084305D0012004E020463946BDE8F08D0E
:1006C0000020054346EAE0762C4337430A98630549
:1006D000E40AA0EB08000022FD0A44EA47540A306D
:1006E00002D500200146E9E7010510196941DDE95D
:1006F000084500196941BDE8F04DA2E700BFFEE7DB
:1007000070470000F7B582B0029C039801909DF8F5
:100710000750BDF804609DF810702A48844204D147
:100720000121042000F038F932E02748844204D146
:100730000121082000F030F92AE02448844204D145
:100740000121102000F028F922E02148844204D140
:100750000121202000F020F91AE01E48844204D133
:100760000121402000F018F912E01B48844204D116
:100770000121802000F010F90AE01848844204D1D9
:100780000121801500F008F902E0012005B0F0BD5C
:1007900001A9204600F024F82DB1042D03D0282D06
:1007A00001D0482D01D10020F0E727B13146204685
:1007B00000F0A3F803E03146204600F09CF800204A
:1007C000E4E7000000080140000C01400010014077
:1007D0000014014000180140001C014000200140AD
:1007E0002DE9F041024600250026002000230024C8
:1007F000002791F803C00CF00F0591F803C00CF02E
:10080000100CBCF1000F03D091F802C04CEA0505B2
:1008100091F800C0BCF1000F31D0146800202BE02B
:100820004FF0010C0CFA00F3B1F800C00CEA03061B
:100830009E4220D183004FF00F0C0CFA03F7BC430B
:1008400005FA03FC4CEA040491F803C0BCF1280F3C
:1008500006D14FF0010C0CFA00FCC2F814C00AE0FB
:1008600091F803C0BCF1480F05D14FF0010C0CFA10
:1008700000FCC2F810C0401C0828D1D31460B1F8A5
:1008800000C0BCF1FF0F34DD546800202EE000F101
:10089000080C4FF0010808FA0CF3B1F800C00CEA9C
:1008A00003069E4221D183004FF00F0C0CFA03F790
:1008B000BC4305FA03FC4CEA040491F803C0BCF104
:1008C000280F05D100F1080C08FA0CF8C2F81480C2
:1008D00091F803C0BCF1480F07D100F1080C4FF0AC
:1008E000010808FA0CF8C2F81080401C0828CED382
:1008F0005460BDE8F081416170470161704700BFFD
:10090000FEE700BFFEE7704770B5002100230F220D
:10091000C47804B3154C246804F4E064C4F5E064BE
:10092000210AC1F10403CA40447804FA03F184782F
:100930001440214309010E4C0678A155047804F0B7
:100940001F050124AC4005786D11AD0005F1E025CF
:10095000C5F8004109E0047804F01F050124AC400B
:10096000044D0678761145F8264070BD0CED00E088
:1009700000E400E080E100E029B1064AD2690243C8
:10098000044BDA6104E0034AD2698243014BDA6125
:10099000704700000010024029B1064A92690243E4
:1009A000044B9A6104E0034A92698243014B9A61C5
:1009B000704700000010024030B5002100220024E2
:1009C00000232D4D6D6805F00C0121B1042905D0DF
:1009D000082923D105E0294D056022E0274D056057
:1009E0001FE0254D6D6805F47012234D6D6805F408
:1009F0008034022505EB92421CB9214D5543056018
:100A00000BE01D4D6D6805F400351DB11C4D5543BF
:100A1000056002E0194D5543056002E0174D056081
:100A200000BF00BF144D6D6805F0F0010909154DB8
:100A30006B5C0568DD4045600F4D6D6805F4E06155
:100A4000090A104D6B5C4568DD4085600A4D6D6894
:100A500005F46051C90A0B4D6B5C4568DD40C5600B
:100A6000054D6D6805F44041890B074D6B5CC56809
:100A7000B5FBF3F5056130BD0010024000127A00AD
:100A800000093D000000002010000020704710B554
:100A900000F002F810BD00000CB50020019000909D
:100AA0003348006840F480303149086000BF304866
:100AB000006800F4003000900198401C01900098FC
:100AC00018B90198B0F5A06FF1D12948006800F479
:100AD000003010B10120009001E00020009000984B
:100AE000012843D12348006840F0100021490860E4
:100AF0000846006820F0030008600846006840F0DF
:100B0000020008601A484068194948600846406871
:100B100048600846406840F4806048600846406885
:100B200020F47C1048600846406840F4E8104860B3
:100B30000846006840F08070086000BF0C480068FC
:100B400000F000700028F9D00948406820F0030048
:100B5000074948600846406840F00200486000BF0E
:100B60000348406800F00C000828F9D10CBD0000D3
:100B7000001002400020024010B51348006840F009
:100B800001001149086008464068104908400E49B4
:100B90004860084600680E4908400B49086008464E
:100BA000006820F4802008600846406820F4FE00B9
:100BB00048604FF41F008860FFF769FF4FF0006046
:100BC0000449086010BD0000001002400000FFF85A
:100BD000FFFFF6FE08ED00E070B596B004460D4646
:100BE00000201290139014901590204820611295C7
:100BF0000020ADF84C00ADF85000ADF84E00ADF857
:100C000054000C20ADF8520012A80FC884E80F0061
:100C100017480F900015ADF8400018210FA8C171BA
:100C20000321817101208DF844000FA807C8C4E991
:100C3000091220620E480F90C014ADF84000482100
:100C40000FA8C17100208DF844000FA807C8C4E99F
:100C5000061260613C2204F110016846FFF784FA35
:100C6000E66A94E80F00B04716B070BD004C004033
:100C70000010014010B5002440F22551094800F051
:100C8000ACFB50B1074800F063FCC4B206480068F2
:100C900018B120460449096888472021014800F01E
:100CA0006BFB10BD004C00402000002070B596B0DA
:100CB00004460D4600201290139014901590204881
:100CC000206112950020ADF84C00ADF85000ADF851
:100CD0004E00ADF854000C20ADF8520012A80FC819
:100CE00084E80F0017480F908014ADF840001821D9
:100CF0000FA8C1710321817101208DF844000FA854
:100D000007C8C4E9091220620F480F900420ADF80B
:100D1000400048210FA8C17100208DF844000FA8A1
:100D200007C8C4E9061260613C2204F1100168465C
:100D3000FFF71AFAE66A94E80F00B04716B070BDE4
:100D400000500040001001400014014010B5002484
:100D500040F22551094800F040FB50B1074800F02F
:100D6000F7FBC4B20648006818B120460449096878
:100D700088472021014800F0FFFA10BD00500040D4
:100D80002400002070B596B004460D460020129055
:100D90001390149015902048206112950020ADF812
:100DA0004C00ADF85000ADF84E00ADF854000C20EA
:100DB000ADF8520012A80FC884E80F0017480F9032
:100DC0004015ADF8400018210FA8C17103218171B1
:100DD00000208DF844000FA807C8C4E9091220625A
:100DE0000E480F900015ADF8400048210FA8C171C2
:100DF00000208DF844000FA807C8C4E906126061FE
:100E00003C2204F110016846FFF7AEF9E66A94E867
:100E10000F00B04716B070BD003801400008014017
:100E200010B5002440F22551094800F0D6FA50B11F
:100E3000074800F08DFBC4B20648006818B1204690
:100E40000449096888472021014800F095FA10BD3F
:100E5000003801401400002070B596B004460D46DD
:100E60000020129013901490159020482061129544
:100E70000020ADF84C00ADF85000ADF84E00ADF8D4
:100E800054000C20ADF8520012A80FC884E80F00DF
:100E900017480F900420ADF8400018210FA8C17129
:100EA0000321817101208DF844000FA807C8C4E90F
:100EB000091220620E480F900820ADF8400048212A
:100EC0000FA8C17100208DF844000FA807C8C4E91D
:100ED000061260613C2204F110016846FFF744F9F4
:100EE000E66A94E80F00B04716B070BD00440040B9
:100EF0000008014010B5002440F22551094800F0D7
:100F00006CFA50B1074800F023FBC4B206480068F1
:100F100018B120460449096888472021014800F09B
:100F20002BFA10BD004400401800002070B596B0A8
:100F300004460D46002012901390149015902048FE
:100F4000206112950020ADF84C00ADF85000ADF8CE
:100F50004E00ADF854000C20ADF8520012A80FC896
:100F600084E80F0017480F900015ADF840001821D5
:100F70000FA8C1710321817101208DF844000FA8D1
:100F800007C8C4E9091220620E480F90C014ADF8DA
:100F9000400048210FA8C17100208DF844000FA81F
:100FA00007C8C4E9061260613C2204F110016846DA
:100FB000FFF7DAF8E66A94E80F00B04716B070BDA4
:100FC00000480040000C014010B5002440F22551BB
:100FD000094800F002FA50B1074800F0B9FAC4B26B
:100FE0000648006818B1204604490968884720214E
:100FF000014800F0C1F910BD004800401C0000206D
:1010000010B504460021204600F0CEF9002240F23F
:101010002771204600F00BFA002240F225512046AD
:1010200000F005FA002240F22661204600F0FFF9A8
:1010300040F22771204600F0A8F940F226612046D0
:1010400000F0A3F940F22551204600F09EF910BDB2
:1010500010B504464C212046FFF79FF80748A063CF
:101060000748E0630748E0620748206307482064B8
:101070000748A0640748606410BD000059110008CB
:101080000110000899100008A91100084D1200086D
:101090008B120008691200080FB410B594B016A89E
:1010A0000FC810AC0FC41A9C294A1A98811A904292
:1010B0001CD006DC2749084470B1B0F5806F1FD101
:1010C0000FE0B1F5806F16D0B1F56C4F18D101214A
:1010D0008803FFF761FC13E001214804FFF74CFC93
:1010E0000EE001218804FFF747FC09E00121C80454
:1010F000FFF742FC04E001210805FFF73DFC00BFBB
:1011000000BF1EA807C8FFF7FDFA1BA807C8FFF716
:10111000F9FA10A9204600F0AFF90121204600F0AD
:1011200043F9012240F22551204600F080F93C228B
:101130001AA96846FFF718F816A80FC800F0E4F8D7
:101140002046239900F0AEF814B010BC5DF814FBF3
:10115000004C004000BCFFBF10B5044601212046F2
:1011600000F022F940F22771204600F00EF940F21B
:101170002661204600F009F940F22551204600F092
:1011800004F9012240F22771204600F050F90122B3
:1011900040F22551204600F04AF9012240F2266132
:1011A000204600F044F910BD0FB40EB509A807C8D9
:1011B0008DE8070028218DF807109DE80700FFF74C
:1011C000A1FA0CA807C88DE8070028218DF80710A0
:1011D0009DE80700FFF796FA1A4A0898811A90428C
:1011E0001FD006DC1849084478B1B0F5806F24D1CF
:1011F00011E0B1F5806F1AD0B1F56C4F1DD100210F
:101200004FF48040FFF7C8FB17E000214FF4003097
:10121000FFF7B2FB11E000214FF48020FFF7ACFB99
:101220000BE000214FF40020FFF7A6FB05E00021B2
:101230004FF48010FFF7A0FB00BF00BF03B05DF8C4
:1012400014FB0000004C004000BCFFBF70B504461A
:101250000D462946204600F080F900BF208800F0A6
:1012600080000028FAD070BD2DE9F04107460D46F8
:101270001646002405E0295D3846FFF7E7FF601CAD
:1012800084B2B442F7DBBDE8F08170B505460C4688
:101290002046FEF78DFF86B2324621462846FFF7EC
:1012A000E3FF70BD114BC21A984216D006DC104AFB
:1012B000024462B1B2F5806F15D10BE0B2F5806FD8
:1012C0000ED0B2F56C4F0ED10A4A11600BE00A4AFB
:1012D000116008E0094A116005E0094A116002E066
:1012E000084A116000BF00BF70470000004C00407A
:1012F00000BCFFBF14000020180000201C000020CC
:1013000020000020240000200FB438B500200090F9
:101310000024174A0898811A904213D006DC154918
:10132000084458B1B0F5806F10D109E0B1F5806F75
:101330000AD0B1F56C4F09D1252407E0262405E039
:10134000272403E0342401E0352400BF00BF8DF8DA
:10135000004000208DF801008DF8020001208DF87A
:1013600003006846FFF7D0FA38BC5DF814FB0000B4
:10137000004C004000BCFFBF01F40072B2F5007FDA
:1013800000D100BFCA430280704710B5002200237D
:1013900040F66A14A14200D100BF0A120124944011
:1013A000A3B2DC43048010BD21B1828942F4005213
:1013B000828104E082894DF6FF731A408281704772
:1013C00002460020B1F5007F00D100BF13880B401A
:1013D0000BB1012000E00020704770B502460024E8
:1013E00000230025002040F66A16B14200D100BF5C
:1013F000C1F3421501F01F03012606FA03F3012D84
:1014000002D19689334006E0022D02D1168A33407C
:1014100001E0968A33400C12012606FA04F416887D
:10142000344013B10CB1012000E0002070BDF0B5D4
:101430000346002400260025002040F66A17B94222
:1014400000D100BF1846C1F3421401F01F06012766
:1014500007FA06F5012C01D10C3004E0022C01D171
:10146000103000E014301AB107682F43076002E023
:101470000768AF430760F0BD2DE9F04786B0054629
:101480000E460024A24600BFA1460027B08900B145
:1014900000BF2F462C8A4CF6FF700440F0880443AE
:1014A0002C82AC894EF6F3100440B0883189084391
:1014B000718908430443AC81AC8A4FF6FF40044075
:1014C000B0890443AC8201A8FFF776FA1F4887422F
:1014D00002D1DDF810A001E0DDF80CA0A88900F42D
:1014E000004040B10AEBCA0000EB0A103168490025
:1014F000B0FBF1F807E00AEBCA0000EB0A10316814
:101500008900B0FBF1F86420B8FBF0F00401200979
:10151000642101FB1089A88900F4004040B1322009
:1015200000EBC900B0FBF1F000F00700044308E055
:10153000322000EB09106421B0FBF1F000F00F0045
:1015400004432C8106B0BDE8F0870000003801405C
:1015500001468888C0F308007047C1F30802828002
:10156000704700000449054A1288885403490988D5
:10157000491C024A11807047640100202E0000209F
:101580000449054A1288885403490988491C024ABB
:1015900011807047C80100203000002030B5EFB046
:1015A00000245CA8FFF754FD49A8FFF751FD36A8B9
:1015B000FFF74EFD23A8FFF74BFD10A8FFF748FDEE
:1015C000784869904FF4E1315CA8FFF7DBFB3C22DF
:1015D00060A96846FEF7C8FD679D5CA80FC8A847CC
:1015E000714856904FF4E13149A8FFF735FC3C2291
:1015F0004DA96846FEF7B8FD679D49A80FC8A847E2
:101600006A4843904FF4E13136A8FFF78FFC3C2243
:101610003AA96846FEF7A8FD679D36A80FC8A847F7
:10162000634830904FF4E13123A8FFF7D5FA3C220C
:1016300027A96846FEF798FD679D23A80FC8A8470D
:101640005C481D904FF4E13110A8FFF72FFB3C22BE
:1016500014A96846FEF788FD679D10A80FC8A84723
:1016600031216C9A609890473221599A4D98904751
:101670003321469A3A9890473421339A27989047D5
:101680003521209A149890474BA16E9A6098904704
:101690004FA15B9A4D98904753A1489A3A9890472A
:1016A00057A1359A279890475AA1229A14989047A3
:1016B00012225DA16D9B6098984712225FA15A9BF0
:1016C0004D989847122262A1479B3A989847112259
:1016D00064A1349B27989847112267A1219B1498F5
:1016E000984743E06948008848B168490A886849D2
:1016F0006D9B60989847002064490880641C654889
:10170000008848B163490A8863495A9B4D989847B5
:10171000002060490880641C6048008848B15F4927
:101720000A885F49479B3A98984700205B490880A0
:10173000641C5C48008848B15A490A885A49349B5D
:1017400027989847002057490880641C574800880C
:1017500048B156490A885649219B14989847002059
:1017600052490880641C642000F0B5F9032CB9DBF1
:1017700050A000F051F9032159A000F04DF90321C8
:1017800061A000F049F9032169A000F045F90022A9
:10179000714B72A000F040F97BA17DA000F03CF9F4
:1017A0006FB030BDC5190008E1190008FD19000827
:1017B0006515000881150008757361727431207316
:1017C0007472696E6720746573740D0A00000000FE
:1017D00075736172743220737472696E67207465F8
:1017E00073740D0A00000000757361727433207306
:1017F0007472696E6720746573740D0A00000000CE
:10180000756172743420737472696E6720746573C5
:10181000740D0A00756172743520737472696E6795
:1018200020746573740D0A007573617274312064DD
:1018300061746120746573740D0A000075736172C0
:101840007432206461746120746573740D0A000041
:10185000757361727433206461746120746573748C
:101860000D0A000075617274342064617461207423
:101870006573740D0A00000075617274352064612F
:10188000746120746573740D0A0000002800002044
:10189000380000202A0000209C0000202C0000209E
:1018A000000100202E0000206401002030000020F4
:1018B000C80100206C6962207072696E74662066CF
:1018C000756E6374696F6EA3BA636F6E7374207301
:1018D0007472696E6720746573742E0D0A000000BF
:1018E0006C6962207072696E74662066756E6374CE
:1018F000696F6E3A20696E7420746573742E2020AF
:10190000333D25640D0A00006C6962207072696EB7
:1019100074662066756E6374696F6E3A20686578C8
:1019200020746573742E2020333D25780D0A000045
:101930006C6962207072696E74662066756E63747D
:10194000696F6E3A206F637420746573742E202063
:10195000333D256F0D0A0000000008406C696220CD
:101960007072696E74662066756E6374696F6E3A24
:1019700020666C6F617420746573742E2020332E82
:10198000303D25660D0A0000737472696E670000B1
:101990006C6962207072696E74662066756E63741D
:1019A000696F6E3A20737472696E67207465737420
:1019B0002E2020737472696E673D25730D0A000036
:1019C00000BFFEE70449054A128888540349098884
:1019D000491C024A1180704738000020280000206E
:1019E0000449054A1288885403490988491C024A57
:1019F000118070479C0000202A0000200449054AFD
:101A00001288885403490988491C024A118070478A
:101A1000000100202C0000200FB4054B10B503A9D5
:101A2000044A029800F026F910BC5DF814FB00008F
:101A3000A523000834000020002149E000BF00BFBA
:101A400000BF00BF00BF00BF00BF00BF00BF00BF9E
:101A500000BF00BF00BF00BF00BF00BF00BF00BF8E
:101A600000BF00BF00BF00BF00BF00BF00BF00BF7E
:101A700000BF00BF00BF00BF00BF00BF00BF00BF6E
:101A800000BF00BF00BF00BF00BF00BF00BF00BF5E
:101A900000BF00BF00BF00BF00BF00BF00BF00BF4E
:101AA00000BF00BF00BF00BF00BF00BF00BF00BF3E
:101AB00000BF00BF00BF00BF00BF00BF00BF00BF2E
:101AC00000BF00BF00BF00BF00BF00BF4A1C91B2F3
:101AD0008142B3DB704710B5044603E04FF47A70DF
:101AE000FFF7AAFF2000A4F101018CB2F6D110BDCE
:101AF00002E008C8121F08C1002AFAD170477047D7
:101B0000002001E001C1121F002AFBD17047000034
:101B10002DE9FF5FDDE90220010DDDF838B0024359
:101B200018D044F61050A1F2FF3141430D140F9824
:101B3000012820D0A5EB0B00401C5FEA000A4FF003
:101B40000004474EDFF81C91A046504616D5CAF156
:101B5000000728E00F98012443A2012808D00021A3
:101B600000980F9BC0E90021C0E90243BDE8FF9F38
:101B70006FEA0B01F4E7CBF10000DEE7074612E065
:101B8000F80707D02246334640464946FEF705FC93
:101B9000804689462246334610461946FEF7FDFB2D
:101BA00004460E467F10002FEAD1DDE90201BAF1AA
:101BB000000F42464B4602DAFEF7EFFB01E0FEF76C
:101BC0005EFC04460E460022284BFEF7DFFC03D8DD
:101BD0004FF0FF30014607E00022254B20463146FA
:101BE000FEF734FBFEF7BAFC102409E0002C0ADBF8
:101BF0000A220023FEF7F9FA019B30321A55641EBF
:101C000050EA0102F2D1641C019AC4F11103144498
:101C10000F9A012A03D0012208430DD10AE008439C
:101C200004D000204FF0110B0F9080E7A3EB0B05C1
:101C30006D1E0DE05B4504DD4FF0000205F101056E
:101C400004E003DA4FF00002A5F10105002AECD010
:101C500000980F99C0E90231C0E9004586E700000D
:101C6000000024400000F03F300000000000F0437E
:101C70000000E03F2DE9FF4F95B09B4689460646A0
:101C800000250FE2252877D100242746F84A0121B4
:101C9000059400E0044316F8013F203B01FA03F0ED
:101CA0001042F7D130782A2811D06FF02F03307806
:101CB000A0F13002092A16D8059A44F0020402EB7A
:101CC000820203EB42021044761C0590EFE759F8BC
:101CD000042B0592002A03DA504244F40054059084
:101CE00044F00204761C30782E2816D116F8010F25
:101CF00044F004042A280DD06FF02F023078A0F1B0
:101D00003003092B09D807EB870302EB4303C718FD
:101D1000761CF3E759F8047B761C30786C280FD0DA
:101D200006DC4C2817D068280DD06A2814D104E0AE
:101D3000742810D07A280FD10DE044F400140AE082
:101D400044F4801401E044F440147278824202D1D9
:101D500004F58014761C761C307866280BD013DCD2
:101D6000582877D009DC002875D04528F6D04628B9
:101D7000F4D047281AD19DE118E0632835D06428B3
:101D800079D0652812D195E1702873D008DC6728D6
:101D9000F1D069286FD06E280DD06F2806D1B5E03C
:101DA00073282CD0752875D0782874D05A46179986
:101DB00090476D1C75E1C4F30250022809D0032836
:101DC0000DD0D9F8001004280DD00D6009F10409D8
:101DD00067E1D9F80010EA17C1E90052F6E7D9F82F
:101DE00000100D80F2E70D70F0E719F8041B8DF874
:101DF000001000208DF80100EA46012003E059F8A8
:101E000004AB4FF0FF3061074FF0000102D40DE04A
:101E100008F101018846B9420FDA8045F8DB1AF86B
:101E200008100029F4D108E008F101018846814238
:101E3000FADB1AF808100029F6D105985B46A0EBEA
:101E4000080721463846179A00F094FA284400EB18
:101E5000080507E04DE029E10DE01AF8010B5A46AC
:101E600017999047B8F10108F7D25B4621463846EA
:101E7000179A13E142E00A220092C4F302524FF093
:101E8000000A022A08D059F804CB032A4FEAEC7161
:101E90000AD00DE029E02AE009F1070121F007024C
:101EA000F2E802C1914609E00FFA8CFC4FEAEC71AE
:101EB000042A03D14FFA8CFC4FEAEC71002907DAAF
:101EC0000A460021DCF1000C61EB02012D2202E048
:101ED000220504D52B228DF80420012203E0E2071D
:101EE00001D02022F7E7904659E00A2102E01022B3
:101EF0000DE010214FF0000A00910BE010224FF08E
:101F0000000A44F004040827009203E008224FF07E
:101F1000000A0092C4F30252022A05D059F804CBF9
:101F20000021032A08D009E009F1070121F0070286
:101F3000F2E802C1914605E01FFA8CFC042A01D1A7
:101F40000CF0FF0C4FF00008220728D5702806D0AF
:101F5000009B83F0100353EA0A0305D00EE04022F1
:101F60008DF80420012208E05CEA010206D030224C
:101F70008DF804208DF8050002229046009B83F026
:101F8000080353EA0A030AD15CEA010201D162079D
:101F900005D530228DF804204FF001087F1E582807
:101FA00004D034A003900EA802900DE036A0F9E70B
:101FB00053466046009AFEF718F984460398825CFF
:101FC0000298401E029002705CEA0100F0D1029873
:101FD00006A9081A00F1200A600702D524F480340B
:101FE00000E00127574502DDA7EB0A0000E00020D2
:101FF00000EB0A01009005984144401A0590E00367
:1020000006D45B462146179A059800F0B3F90544BB
:10201000002706E001A85A46C05D179990476D1C3D
:102020007F1C4745F6DBE0030CD55B462146179A3B
:10203000059800F09FF9054404E030205A461799AE
:1020400090476D1C0099481E00900029F5DC08E0BF
:10205000029802995A460078491C029117999047B4
:102060006D1CBAF10001AAF1010AF1DC65E1000082
:10207000092801003031323334353637383961625E
:102080006364656600000000303132333435363722
:1020900038394142434445460000000000F058F9F9
:1020A0000544761C307800287FF4ECAD19B0284642
:1020B000BDE8F08F620700D4062709F1070222F07D
:1020C000070CFCE80223E14603F000485FEA080C35
:1020D00002D00FF2702C0DE05FEA045C02D50FF223
:1020E000682C07E05FEAC47C02D00FF2602C01E0AC
:1020F000AFF2700C4FF0FF3823F00043CDF850C022
:1021000065280CD006DC452809D046281DD0472874
:102110003DD13DE0662818D067287ED138E0002107
:10212000112F01DB112000E0781CCDE9000106A988
:102130000EA8FFF7EDFCDDE90F010E9A03910021D7
:10214000009207F1010A04914DE04FF00040009722
:10215000CDE9011006A90EA8FFF7DAFCDDE90F02B0
:1021600003920E9B11990022DDF80CA000930492BB
:1021700011B9791C00EB010AB7EB0A0004D4C0F1D5
:10218000FF3007F1010A0490AAEB0700019044E038
:10219000012F00DA01270021112F01DD112000E0BD
:1021A0003846CDE9000106A90EA8FFF7B1FCDDE92C
:1021B0000F010E9A0391002104910092BA46210763
:1021C0000CD40399514500DA8A46BAF1010F05DDB6
:1021D000009AAAF10101515C302908D0B84202DA14
:1021E00010F1040F06DA0121CDE9011015E0AAF182
:1021F0000101E9E7002805DC049901440491AAEBF8
:10220000000102E0411C514500DD8A460499401A54
:10221000401C01904FF000400290200704D4019828
:10222000504501DBCDF8048000208DF84F00029866
:102230000DF14F07B0F1004F25D02B200E900298E2
:102240004FF0020800280CDA404202902D200E9038
:1022500007E00A210298FDF7B2FF3031029007F83B
:10226000011DB8F10001A8F10108F2DC0298002874
:10227000EFD1791E0E980870307800F0200040F001
:10228000450007F8020D12A8C01B00F107081498BA
:10229000007800B1012000EB0A01019801EBE07128
:1022A00005984144401A401E0590E00306D45B4661
:1022B0002146179A059800F05DF8054414980078B7
:1022C00018B15A46179990476D1CE00324D55B4618
:1022D0002146179A059800F04DF805441CE0049833
:1022E000002807DBDDE90301884203DD0098405C3C
:1022F000179901E0179930205A469047049805F144
:102300000105401C04900198401E019004D12E202C
:102310005A46179990476D1CBAF10001AAF1010ABB
:10232000DDDC05E017F8010B5A46179990476D1C44
:10233000B8F10001A8F10108F4DC5B462146179AC8
:102340000598ABE62D0000002B00000020000000E7
:102350002DE9F041044600251E461746880404D4A2
:1023600005E039462020B0476D1C641EF9D528468B
:10237000BDE8F0812DE9F041044600251E46904657
:10238000C80301D5302700E02027880404D505E0E4
:1023900041463846B0476D1C641EF9D52846BDE855
:1023A000F081000070B504460D46E0B20549088092
:1023B00000BF80210348001FFFF702F80028F8D073
:1023C000204670BD04380140FFF7E8F800BFFEE783
:1023D000F02300080000002038000000F01A000878
:1023E0002824000838000020F8090000001B00081D
:1023F00000000000010203040102030406070809AB
:1024000002040608000000000000000000000000B8
:1024100000000000000000000000000000000000BC
:082420000000000000000000B4
:0400000508000131BD
:00000001FF
