:020000040800F2
:1000000018080020450100088F0400088704000834
:100010008B0400088D010008FD05000800000000A9
:10002000000000000000000000000000B104000813
:1000300091010008000000005B0100085D0100085C
:100040005F0100085F0100085F0100085F01000810
:100050005F0100085F0100085F0100085F01000800
:100060005F0100085F0100085F0100085F010008F0
:100070005F0100085F0100085F0100085F010008E0
:100080005F0100085F0100085F0100085F010008D0
:100090005F0100085F0100085F0100085F010008C0
:1000A0005F0100085F0100085F0100085F010008B0
:1000B0005F0100085F0100085F0100085F010008A0
:1000C0005F0100085F0100085F0100085F01000890
:1000D0005F0100085F0100085F0100085F01000880
:1000E0005F0100085F0100085F0100085F01000870
:1000F0005F0100085F0100085F0100085F01000860
:100100005F0100085F0100085F0100085F0100084F
:100110005F0100085F0100085F0100085F0100083F
:100120005F0100085F0100085F0100085F0100082F
:10013000DFF80CD000F018F800480047D706000898
:10014000180800200648804706480047FEE7FEE7FB
:10015000FEE7FEE7FEE7FEE7FEE7FEE7FEE7FEE777
:100160009D05000831010008064C074D06E0E068D7
:1001700040F0010394E8070098471034AC42F6D3EE
:10018000FFF7DAFFE00600080007000800BFFEE7FF
:100190007047000000240AE004EB44000F4901EB23
:1001A000800393E8070000F033F8601CC4B2022C0F
:1001B000F2D312E000240EE004EB4400074901EB07
:1001C000800393E8070000F0A8F84FF4FA7000F0FD
:1001D00075FA601CC4B2022CEED3EBE700000020DD
:1001E000F7B5009D9DF80740BDF804602CB1042CC4
:1001F00003D0282C01D0482C04D13146284600F0E9
:1002000027F9FEBD3146284600F02BF9F9E700003A
:10021000F7B582B0029C039801909DF80750BDF895
:1002200004609DF810702A48844204D10121042002
:1002300000F02EF932E02748844204D10121082041
:1002400000F026F92AE02448844204D1012110203C
:1002500000F01EF922E02148844204D1012120202F
:1002600000F016F91AE01E48844204D10121402012
:1002700000F00EF912E01B48844204D101218020D5
:1002800000F006F90AE01848844204D101218015E3
:1002900000F0FEF802E0012005B0F0BD01A9204603
:1002A00000F04BF82DB1042D03D0282D01D0482D9E
:1002B00001D10020F0E727B13146204600F0DCF8FC
:1002C00003E03146204600F0D5F80020E4E70000C6
:1002D00000080140000C01400010014000140140E2
:1002E00000180140001C0140002001402DE9FF41A1
:1002F0001D46009E9DF80740BDF80470142C05D0E3
:10030000102C03D01C2C01D0182C04D12A463946BD
:10031000304600F0B3F8BDE8FF8137B59DE807002F
:10032000FFF75EFF08B9012000E0002004462346E5
:100330009DE80700FFF7DAFF3EBD2DE9F0410246D8
:1003400000250026002000230024002791F803C088
:100350000CF00F0591F803C00CF0100CBCF1000F6D
:1003600003D091F802C04CEA050591F800C0BCF139
:10037000000F31D0146800202BE04FF0010C0CFA74
:1003800000F3B1F800C00CEA03069E4220D18300BE
:100390004FF00F0C0CFA03F7BC4305FA03FC4CEAD0
:1003A000040491F803C0BCF1280F06D14FF0010CF2
:1003B0000CFA00FCC2F814C00AE091F803C0BCF1CA
:1003C000480F05D14FF0010C0CFA00FCC2F810C028
:1003D000401C0828D1D31460B1F800C0BCF1FF0F55
:1003E00034DD546800202EE000F1080C4FF00108C5
:1003F00008FA0CF3B1F800C00CEA03069E4221D1C2
:1004000083004FF00F0C0CFA03F7BC4305FA03FC12
:100410004CEA040491F803C0BCF1280F05D100F1A7
:10042000080C08FA0CF8C2F8148091F803C0BCF16B
:10043000480F07D100F1080C4FF0010808FA0CF83A
:10044000C2F81080401C0828CED35460BDE8F0816B
:100450000246002093680B400BB1012000E0002011
:10046000704702460020D3680B400BB1012000E02A
:100470000020704741617047016170470AB1016116
:1004800000E04161704700BFFEE700BFFEE7704734
:1004900029B1064A92690243044B9A6104E0034A77
:1004A00092698243014B9A6170470000001002403C
:1004B000704710B500F002F810BD00000CB5002028
:1004C000019000903348006840F480303149086062
:1004D00000BF3048006800F4003000900198401CD4
:1004E0000190009818B90198B0F5A06FF1D1294892
:1004F000006800F4003010B10120009001E00020FD
:1005000000900098012843D12348006840F0100073
:10051000214908600846006820F00300086008468A
:10052000006840F0020008601A48406819494860B5
:100530000846406848600846406840F4806048606B
:100540000846406820F47C1048600846406840F443
:10055000E81048600846006840F08070086000BFFE
:100560000C48006800F000700028F9D00948406885
:1005700020F00300074948600846406840F0020048
:10058000486000BF0348406800F00C000828F9D11B
:100590000CBD0000001002400020024010B51348BE
:1005A000006840F0010011490860084640681049A1
:1005B00008400E494860084600680E4908400B494B
:1005C00008600846006820F48020086008464068FB
:1005D00020F4FE0048604FF41F008860FFF769FFB9
:1005E0004FF000600449086010BD00000010024098
:1005F0000000FFF8FFFFF6FE08ED00E000BFFEE799
:1006000002E008C8121F08C1002AFAD170477047DB
:10061000002001E001C1121F002AFBD17047002118
:1006200049E000BF00BF00BF00BF00BF00BF00BF68
:1006300000BF00BF00BF00BF00BF00BF00BF00BFC2
:1006400000BF00BF00BF00BF00BF00BF00BF00BFB2
:1006500000BF00BF00BF00BF00BF00BF00BF00BFA2
:1006600000BF00BF00BF00BF00BF00BF00BF00BF92
:1006700000BF00BF00BF00BF00BF00BF00BF00BF82
:1006800000BF00BF00BF00BF00BF00BF00BF00BF72
:1006900000BF00BF00BF00BF00BF00BF00BF00BF62
:1006A00000BF00BF00BF00BF00BF00BF00BF00BF52
:1006B00000BF4A1C91B28142B3DB704700B50346CC
:1006C00003E04FF47A70FFF7AAFF1800A3F10101CD
:1006D0008BB2F6D100BD10B5FFF75CFD002010BD58
:1006E00000070008000000201800000000060008B5
:1006F0001807000818000020000800001006000875
:100700000014014000200310000000000020014000
:0807100000400310010000008D
:0400000508000131BD
:00000001FF
